:100000000C9434000C943E000C943E000C943E0082
:100010000C943E000C943E000C943E000C943E0068
:100020000C943E000C943E000C943E000C943E0058
:100030000C943E000C943E000C943E000C943E0048
:100040000C943E000C943E000C943E000C943E0038
:100050000C943E000C943E000C943E000C943E0028
:100060000C943E000C943E0011241FBECFEFD8E04C
:10007000DEBFCDBF0E9440000C9459000C940000DC
:1000800080E284B990E28FED95B92FEF3BE742E92A
:10009000215030404040E1F700C0000085B92FEF0B
:1000A0003BE742E9215030404040E1F700C000000A
:0600B000EBCFF894FFCF36
:00000001FF
